:03000000020100FA
:03000300020100F7
:03000B00020100EF
:03001300020100E7
:03001B00020100DF
:03002300020100D7
:03002B00020100CF
:10010000C2AF12013F1202AC0A0D57656C636F6DEE
:100110006520746F20362E313135210A0D4D494E40
:100120004D4F4E3E200075812FC2AFC2001202AC6F
:100130000D0A2A00C29812026FFA02028B80E7753C
:100140008920758841758DFD75985022022F022FE8
:10015000022F022F0198022F022F0182022F022F5D
:10016000022F022F022F022F022F022F022F022F07
:1001700001EA022F022F022F022F0208022F022F64
:10018000022F12025DFF1202CB12025DC0E01202CA
:10019000CB1202C0EFC0E0221202C0743E12029ADB
:1001A0001202A2B43AFA1201E06021F81201E0D280
:1001B000E7F5831201E0F5821201E01201E0F0A3FD
:1001C000D8F91201E0742E12029A80D41201E012C2
:1001D00001E01201E01201E0742E12029A02013DC8
:1001E00012025D2000012202024512025DF5831217
:1001F00002CB12025D85E0821202CB1202C0E01235
:1002000002CB1202C002013D12025DF5831202CB45
:1002100012025D85E0821202CB1202A2B43D0A12E4
:10022000029A12025DF01202CB1202C002013D12CC
:1002300002AC0D0A2062616420636F6D6D616E64B3
:10024000200002013D1202AC0D0A206261642070A0
:100250006172616D65746572200002013D1202A237
:100260001202F2C4F5F01202A21202F245F02212BA
:1002700002A2C2E512029AC394405003120245C082
:10028000E0941B4003120245D0E02290014CEA2387
:100290000493C0E0EA2393C0E022C299F599309913
:1002A000FD223098FDE599547FC29822D083D082F8
:1002B000E493B40002800612029AA380F3740173DF
:1002C000740A12029A740D12029A22C0E01202DA23
:1002D00012029AEA12029AD0E022FA540F24F6503F
:1002E000022407243ACAC4540F24F65002240724D7
:1002F0003A22C20024D05017C324F64003240A2215
:10030000C2E5C324F95008C324FA4003540F22D293
:070310000002013D020000A4
:00000001FF
