:03000000020100FA
:10010000120124120185C0E088E0A9E0D0E01201CC
:1001100085C0E088E0AAE0D0E01201D912014812BF
:10012000014880DF758920758840758DFD75985070
:10013000D2B4759000223098FDE599547FC2982280
:10014000C299F5993099FD22C0E0740A12014074F9
:100150000D120140D0E022C0E07590FFC2B485903E
:10016000E053E080B480F78590E0D2B453E00F1202
:1001700001C6F8889024301201407D007C00DDFE2D
:10018000DCFCD0E022C0E012015788E075F064A4E6
:10019000FB12015788E075F00AA42BFB1201578867
:1001A000E02BA8E0120148D0E02275F064842430EE
:1001B000120140E5F075F00A842430120140E5F0A8
:1001C0002430120140220483220102030A0405069E
:1001D0000B0708090C0E000F0DC0E0120136B42BFE
:1001E0000C1201401201481201FCD0E022B42DE9AA
:1001F000120140120148120209D0E022C0E089E059
:100200002AF5901201AAD0E022C0E089E09AF59088
:060210001201AAD0E02259
:00000001FF
