:03000000020100FA
:1001000012010E12014112013212013280F575897D
:1001100020758840758DFD759850D2B47590002279
:100120003098FDE599547FC29822C299F59930998B
:10013000FD22C0E0740A12012A740D12012AD0E0D7
:1001400022C0E07590FFC2B48590E053E080B48097
:10015000F78590E0D2B485E09053E00F120183243C
:100160003012012AD0E02275F06484243012012A72
:10017000E5F075F00A84243012012AE5F0243012EB
:10018000012A220483220102030A0405060B070840
:06019000090C0E000F0D2A
:00000001FF
