:03000000020100FA
:1001000012010E12014112013212013280F575897D
:1001100020758840758DFD759850D2B47590002279
:100120003098FDE599547FC29822C299F59930998B
:10013000FD22C0E0740A12012A740D12012AD0E0D7
:1001400022C0E07590FFC2B48590E053E080B48097
:10015000F78590E0D2B485E09053E00F243012018F
:100160002AD0E02275F06484243012012AE5F0756B
:10017000F00A84243012012AE5F0243012012A22E8
:00000001FF
