:03000000020100FA
:1001000012012412013EC0E088E0A9E0D0E0120113
:100110003EC0E088E0AAE0D0E0120185120176122C
:10012000017680DF758920758840758DFD75985042
:10013000759000223098FDE599547FC29822C0E066
:1001400012013412016E24D075F064A4FB12013444
:1001500012016E24D075F00AA42BFB120134120197
:100160006E24D02BA8E01201768890D0E022C299AC
:10017000F5993099FD22C0E0740A12016E740D12D7
:10018000016ED0E022C0E0120134B42B0C12016EDB
:100190001201761201A8D0E022B42DE912016E12EC
:1001A00001761201B5D0E022C0E089E02AF5901274
:1001B00001C2D0E022C0E089E09AF5901201C2D0DD
:1001C000E02275F06484243012016EE5F075F00AC7
:0E01D00084243012016EE5F0243012016E22FC
:00000001FF
