:10800000128010128029128040128057128078222C
:10801000C082C083759000758200758390E0A9E0EE
:10802000A3E0AAE0D083D08222C0E0C082C08389CE
:10803000E02A758202758390F0D083D082D0E0224E
:10804000C0E0C082C08389E09A758203758390F096
:10805000D083D082D0E022C0E0C0F0C082C083894B
:10806000E08AF0A4758204758390F0A3E5F0F0D067
:1080700083D082D0F0D0E022C0E0C0F0C082C083C4
:1080800089E08AF084758206758390F0A3E5F0F0AC
:09809000D083D082D0F0D0E022B0
:00000001FF
